{
  "contractName": "Faucet",
  "abi": [
    {
      "inputs": [],
      "name": "numOfFunders",
      "outputs": [
        {
          "internalType": "uint256",
          "name": "",
          "type": "uint256"
        }
      ],
      "stateMutability": "view",
      "type": "function",
      "constant": true
    },
    {
      "inputs": [],
      "name": "owner",
      "outputs": [
        {
          "internalType": "address",
          "name": "",
          "type": "address"
        }
      ],
      "stateMutability": "view",
      "type": "function",
      "constant": true
    },
    {
      "stateMutability": "payable",
      "type": "receive",
      "payable": true
    },
    {
      "inputs": [],
      "name": "addFunds",
      "outputs": [],
      "stateMutability": "payable",
      "type": "function",
      "payable": true
    },
    {
      "inputs": [
        {
          "internalType": "uint256",
          "name": "withdrawAmount",
          "type": "uint256"
        }
      ],
      "name": "withdraw",
      "outputs": [],
      "stateMutability": "nonpayable",
      "type": "function"
    },
    {
      "inputs": [],
      "name": "getAllFunders",
      "outputs": [
        {
          "internalType": "address[]",
          "name": "",
          "type": "address[]"
        }
      ],
      "stateMutability": "view",
      "type": "function",
      "constant": true
    },
    {
      "inputs": [
        {
          "internalType": "uint8",
          "name": "index",
          "type": "uint8"
        }
      ],
      "name": "getFunderAtIndex",
      "outputs": [
        {
          "internalType": "address",
          "name": "",
          "type": "address"
        }
      ],
      "stateMutability": "view",
      "type": "function",
      "constant": true
    }
  ],
  "bytecode": "0x608060405234801561001057600080fd5b50336000806101000a81548173ffffffffffffffffffffffffffffffffffffffff021916908373ffffffffffffffffffffffffffffffffffffffff160217905550610834806100606000396000f3fe6080604052600436106100595760003560e01c80630a93cf33146100655780632e1a7d4d146100a25780636fbbb55d146100cb5780638da5cb5b146100f6578063a26759cb14610121578063af7f2c9b1461012b57610060565b3661006057005b600080fd5b34801561007157600080fd5b5061008c6004803603810190610087919061050f565b610156565b60405161009991906105fe565b60405180910390f35b3480156100ae57600080fd5b506100c960048036038101906100c491906104e6565b610196565b005b3480156100d757600080fd5b506100e061022c565b6040516100ed9190610619565b60405180910390f35b34801561010257600080fd5b5061010b610372565b60405161011891906105fe565b60405180910390f35b610129610396565b005b34801561013757600080fd5b506101406104b6565b60405161014d919061065b565b60405180910390f35b6000600360008360ff16815260200190815260200160002060009054906101000a900473ffffffffffffffffffffffffffffffffffffffff169050919050565b80670de0b6b3a764000081106101e1576040517f08c379a00000000000000000000000000000000000000000000000000000000081526004016101d89061063b565b60405180910390fd5b3373ffffffffffffffffffffffffffffffffffffffff166108fc839081150290604051600060405180830381858888f19350505050158015610227573d6000803e3d6000fd5b505050565b6060600060015467ffffffffffffffff811115610272577f4e487b7100000000000000000000000000000000000000000000000000000000600052604160045260246000fd5b6040519080825280602002602001820160405280156102a05781602001602082028036833780820191505090505b50905060005b60015481101561036a576003600082815260200190815260200160002060009054906101000a900473ffffffffffffffffffffffffffffffffffffffff1682828151811061031d577f4e487b7100000000000000000000000000000000000000000000000000000000600052603260045260246000fd5b602002602001019073ffffffffffffffffffffffffffffffffffffffff16908173ffffffffffffffffffffffffffffffffffffffff1681525050808061036290610709565b9150506102a6565b508091505090565b60008054906101000a900473ffffffffffffffffffffffffffffffffffffffff1681565b6000339050600260008273ffffffffffffffffffffffffffffffffffffffff1673ffffffffffffffffffffffffffffffffffffffff16815260200190815260200160002060009054906101000a900460ff166104b35760006001600081548092919061040190610709565b9190505590506001600260008473ffffffffffffffffffffffffffffffffffffffff1673ffffffffffffffffffffffffffffffffffffffff16815260200190815260200160002060006101000a81548160ff021916908315150217905550816003600083815260200190815260200160002060006101000a81548173ffffffffffffffffffffffffffffffffffffffff021916908373ffffffffffffffffffffffffffffffffffffffff160217905550505b50565b60015481565b6000813590506104cb816107d0565b92915050565b6000813590506104e0816107e7565b92915050565b6000602082840312156104f857600080fd5b6000610506848285016104bc565b91505092915050565b60006020828403121561052157600080fd5b600061052f848285016104d1565b91505092915050565b60006105448383610550565b60208301905092915050565b610559816106c0565b82525050565b610568816106c0565b82525050565b600061057982610686565b610583818561069e565b935061058e83610676565b8060005b838110156105bf5781516105a68882610538565b97506105b183610691565b925050600181019050610592565b5085935050505092915050565b60006105d96024836106af565b91506105e482610781565b604082019050919050565b6105f8816106f2565b82525050565b6000602082019050610613600083018461055f565b92915050565b60006020820190508181036000830152610633818461056e565b905092915050565b60006020820190508181036000830152610654816105cc565b9050919050565b600060208201905061067060008301846105ef565b92915050565b6000819050602082019050919050565b600081519050919050565b6000602082019050919050565b600082825260208201905092915050565b600082825260208201905092915050565b60006106cb826106d2565b9050919050565b600073ffffffffffffffffffffffffffffffffffffffff82169050919050565b6000819050919050565b600060ff82169050919050565b6000610714826106f2565b91507fffffffffffffffffffffffffffffffffffffffffffffffffffffffffffffffff82141561074757610746610752565b5b600182019050919050565b7f4e487b7100000000000000000000000000000000000000000000000000000000600052601160045260246000fd5b7f43616e6e6f74207769746864726177206d6f7265207468616e20302e3120657460008201527f6865722000000000000000000000000000000000000000000000000000000000602082015250565b6107d9816106f2565b81146107e457600080fd5b50565b6107f0816106fc565b81146107fb57600080fd5b5056fea2646970667358221220249c59db7c2737cad4cb1cd35b5ff7fda7f2f311f1991382bba6bfc332f90f3064736f6c63430008040033",
  "immutableReferences": {},
  "source": "// SPDX-License-Identifier: MIT\npragma solidity >=0.4.22 <0.9.0;\n\nimport \"./Owned.sol\";\n\ncontract Faucet is Owned {\n  /**\n    this is a special function. It's called when you\n    make a transaction that doesn't specify function\n    name to call\n \n    External function are part of the contract interface\n    which means they can be called via contracts and other transactions\n   */\n  // address[] public funders;\n  uint public numOfFunders;\n  // mapping(uint => address) private funders;\n  mapping(address => bool) private funders;\n  mapping(uint => address) private lutFunders;\n\n  modifier limitWithdraw(uint withdrawAmount) {\n    require(withdrawAmount < 1000000000000000000, \"Cannot withdraw more than 0.1 ether \"); \n    _;\n  }\n\n  receive() external payable {}\n\n  function addFunds() external payable {\n    // funders.push(msg.sender);\n    // funders[index] = msg.sender;\n    address funder = msg.sender;\n\n    if(!funders[funder]) {\n      uint index = numOfFunders++;\n      // numOfFunders++;\n      funders[funder] = true;\n      lutFunders[index] = funder;\n    }\n  }\n\n  function withdraw(uint withdrawAmount) external limitWithdraw(withdrawAmount)  {\n\n    // require(withdrawAmount < 10000000000000 00000, \"Cannot withdraw more than 0.1 ether \"); \n    // if(withdrawAmount < 1000000000000000000){\n      payable(msg.sender).transfer(withdrawAmount);\n    // }\n  }\n\n  function getAllFunders() external view returns (address[] memory) {\n    address[] memory _funders = new address[](numOfFunders);\n\n    for (uint i = 0; i < numOfFunders; i++) {\n      _funders[i] = lutFunders[i];\n    }\n\n    return _funders;\n  }\n\n  function getFunderAtIndex(uint8 index) external view returns(address) {\n    // address[] memory _funders = getAllFunders();\n    return lutFunders[index];\n  }\n}\n\n// const instance = await Faucet.deployed();\n// instance.addFunds({from: accounts[0], value: \"2000000000000000000\"})\n// instance.addFunds({from: accounts[1], value: \"2000000000000000000\"})\n// instance.withdraw(\"5000000000000000000\", {from: accounts[1]})\n// instance.getFunderAtIndex(0)\n// instance.getAllFunders()",
  "sourcePath": "/Users/samtaylek/Documents/blockchain/faucet/contracts/FaucetContract.sol",
  "compiler": {
    "name": "solc",
    "version": "0.8.4+commit.c7e474f2.Emscripten.clang"
  },
  "schemaVersion": "3.4.3",
  "updatedAt": "2021-12-25T08:28:13.913Z",
  "networkType": "ethereum",
  "devdoc": {
    "kind": "dev",
    "methods": {},
    "version": 1
  },
  "userdoc": {
    "kind": "user",
    "methods": {
      "numOfFunders()": {
        "notice": "this is a special function. It's called when you make a transaction that doesn't specify function name to call External function are part of the contract interface which means they can be called via contracts and other transactions"
      }
    },
    "version": 1
  }
}