{
  "contractName": "Storage",
  "abi": [
    {
      "inputs": [],
      "name": "a",
      "outputs": [
        {
          "internalType": "uint8",
          "name": "",
          "type": "uint8"
        }
      ],
      "stateMutability": "view",
      "type": "function",
      "constant": true
    },
    {
      "inputs": [],
      "name": "b",
      "outputs": [
        {
          "internalType": "uint16",
          "name": "",
          "type": "uint16"
        }
      ],
      "stateMutability": "view",
      "type": "function",
      "constant": true
    },
    {
      "inputs": [],
      "name": "c",
      "outputs": [
        {
          "internalType": "address",
          "name": "",
          "type": "address"
        }
      ],
      "stateMutability": "view",
      "type": "function",
      "constant": true
    },
    {
      "inputs": [],
      "name": "e",
      "outputs": [
        {
          "internalType": "uint64",
          "name": "",
          "type": "uint64"
        }
      ],
      "stateMutability": "view",
      "type": "function",
      "constant": true
    },
    {
      "inputs": [],
      "name": "f",
      "outputs": [
        {
          "internalType": "uint256",
          "name": "",
          "type": "uint256"
        }
      ],
      "stateMutability": "view",
      "type": "function",
      "constant": true
    },
    {
      "inputs": [],
      "name": "g",
      "outputs": [
        {
          "internalType": "uint8",
          "name": "",
          "type": "uint8"
        }
      ],
      "stateMutability": "view",
      "type": "function",
      "constant": true
    },
    {
      "inputs": [],
      "name": "h",
      "outputs": [
        {
          "internalType": "uint256",
          "name": "",
          "type": "uint256"
        }
      ],
      "stateMutability": "view",
      "type": "function",
      "constant": true
    }
  ],
  "bytecode": "0x608060405260076000806101000a81548160ff021916908360ff160217905550600a600060016101000a81548161ffff021916908361ffff16021790555073d02964dbde3d4078ad67ee93164a01f87fb11d83600060036101000a81548173ffffffffffffffffffffffffffffffffffffffff021916908373ffffffffffffffffffffffffffffffffffffffff1602179055506001600060176101000a81548160ff021916908315150217905550600f600060186101000a81548167ffffffffffffffff021916908367ffffffffffffffff16021790555060c86001556028600260006101000a81548160ff021916908360ff16021790555061031560035534801561010a57600080fd5b5061034b8061011a6000396000f3fe608060405234801561001057600080fd5b506004361061007d5760003560e01c8063b8c9d3651161005b578063b8c9d365146100dc578063c3da42b8146100fa578063e2179b8e14610118578063ffae15ba146101365761007d565b80630dbe671f1461008257806326121ff0146100a05780634df7e3d0146100be575b600080fd5b61008a610154565b604051610097919061028f565b60405180910390f35b6100a8610165565b6040516100b59190610259565b60405180910390f35b6100c661016b565b6040516100d3919061023e565b60405180910390f35b6100e461017f565b6040516100f19190610259565b60405180910390f35b610102610185565b60405161010f9190610223565b60405180910390f35b6101206101ab565b60405161012d919061028f565b60405180910390f35b61013e6101be565b60405161014b9190610274565b60405180910390f35b60008054906101000a900460ff1681565b60015481565b600060019054906101000a900461ffff1681565b60035481565b600060039054906101000a900473ffffffffffffffffffffffffffffffffffffffff1681565b600260009054906101000a900460ff1681565b600060189054906101000a900467ffffffffffffffff1681565b6101e1816102aa565b82525050565b6101f0816102bc565b82525050565b6101ff816102ea565b82525050565b61020e816102f4565b82525050565b61021d81610308565b82525050565b600060208201905061023860008301846101d8565b92915050565b600060208201905061025360008301846101e7565b92915050565b600060208201905061026e60008301846101f6565b92915050565b60006020820190506102896000830184610205565b92915050565b60006020820190506102a46000830184610214565b92915050565b60006102b5826102ca565b9050919050565b600061ffff82169050919050565b600073ffffffffffffffffffffffffffffffffffffffff82169050919050565b6000819050919050565b600067ffffffffffffffff82169050919050565b600060ff8216905091905056fea2646970667358221220c1a5873ea987948ec8777372784723d9443ed071473a8ab94e577560488f17d564736f6c63430008040033",
  "immutableReferences": {},
  "source": "// SPDX-License-Identifier: MIT\npragma solidity >=0.4.22 <0.9.0;\n\ncontract Storage {\n  uint8 public a = 7;\n  uint16 public b = 10;\n  address public c = 0xd02964DbdE3D4078ad67EE93164a01f87FB11D83;\n  bool d = true;\n  uint64 public e  = 15;\n  uint256 public f = 200;\n  uint8 public g = 40;\n  uint256 public h = 789; \n}",
  "sourcePath": "/Users/samtaylek/Documents/blockchain/faucet/contracts/Storage.sol",
  "compiler": {
    "name": "solc",
    "version": "0.8.4+commit.c7e474f2.Emscripten.clang"
  },
  "schemaVersion": "3.4.3",
  "updatedAt": "2021-12-25T08:28:15.544Z",
  "networkType": "ethereum",
  "devdoc": {
    "kind": "dev",
    "methods": {},
    "version": 1
  },
  "userdoc": {
    "kind": "user",
    "methods": {},
    "version": 1
  }
}